:10000000F8C012C111C110C10FC10EC195CA0CC1F7
:100010000BC10AC109C1F6CA21CB06C105C104C181
:1000200003C102C101C14E44562064657465637406
:100030006564210046445620646574656374656494
:10004000210054656D706572617475726520746508
:10005000726D696E6174696F6E210054656D7020F8
:100060004F4B0054656D70204E4F4B00434841523A
:1000700047494E47204D4F44450042415454204388
:1000800041504143495459003C3E202D2053455492
:100090005550004F4B202D20434841524745004CBE
:1000A0004344204E4F4B004C4344204F4B004241B1
:1000B00054545F4341505F4E4F4B00544F504F4696
:1000C000464348415247455F454E445F54494D457C
:1000D0005200464153544348415247455F454E44C0
:1000E0005F54494D4552005052454348415247459F
:1000F0005F454E445F54494D4552004D41494E5471
:10010000454E414E43455F454E445F54494D45522F
:10011000004F4B2D534156452C55502F444E2D4EDC
:100120004F00534156453F005341564544006D41F1
:10013000683A00544F54414C2054494D45005452A4
:1001400049434B4C452054494D4500544F5043487A
:10015000415247452054494D450046415354434878
:10016000415247452054494D45005052454348416E
:100170005247452054494D4500454E44005452498C
:10018000434B4C4500544F504F4646004641535454
:100190004348415247450050524543484152474524
:1001A00000424154542E2044455445435445440094
:1001B0004E4F204241545445525900424154542E0E
:1001C00020444554454354494F4E00424154544500
:1001D00052592043484152474552004449534348ED
:1001E000415247494E4700B00057008A02C0030001
:1001F000000011241FBECFE5D4E0DEBFCDBF10E06C
:10020000A0E6B0E0E6E8F8E102C005900D92A03764
:10021000B107D9F720E0A0E7B0E001C01D92AA3CE9
:10022000B207E1F7ECD52DCBEBCE939A00C09398B3
:100230000895CF93DF931F92CDB7DEB7662311F0F9
:10024000929A01C0929890988C9A8D9A8E9A8F9AD1
:10025000979896989598949887FD979A86FD969A80
:1002600085FD959A84FD949A8983DFDF9798969807
:1002700095989498898183FD979A82FD969A81FD3D
:10028000959A80FD949AD1DF949A959A969A979A26
:100290000F90DF91CF9108959298909A8C988D98B5
:1002A0008E988F98939A00C0849902C080E001C014
:1002B00080E18599806286998064879980689398A7
:1002C00000C0939A00C08499816085998260869964
:1002D00084608799886093980895DEDF87FDFDCF5D
:1002E00088E090E00197F1F7D7CFCF93DF93C4E098
:1002F000D0E0D2DF87FF09C0CE010197F1F7249645
:10030000C035D105B1F780E001C081E0DF91CF9128
:100310000895CF93C82FE1DF60E08C2FCF9189CF74
:10032000611102C0805801C08054F3CF81E0F1CF49
:1003300082E0EFCFCF93C82FD0DFCA3041F48034B2
:1003400010F480E401C080E08058CF91E2CF80318A
:1003500019F460E080EC04C0803519F460E080E8B6
:1003600068DFBBDF61E08C2FCF9163CFCF93DF934A
:10037000EC018991882311F0DDDFFBCFDF91CF9174
:100380000895CF93DF93FC018491EF012196882398
:1003900019F0D0DFFE01F8CFDF91CF9108958A9A4E
:1003A000889A8B9A8C9A8D9A8E9A8F9A80E09AEF7F
:1003B0000197F1F7959A949A38DF80E09EE40197CF
:1003C000F1F733DF80E091E00197F1F72EDF80E075
:1003D00091E00197F1F7949828DF80E091E0019790
:1003E000F1F7089515BCBB9AC39813BC08958DE02E
:1003F0006ED98AE06CC987D9FACF4AE062EC70E026
:10040000E8D982EC90E074D9F2CFFF920F931F935A
:10041000CF93DF93CDB7DEB7FE0138968191FF24ED
:10042000F39488858F1590F08F010E5F1F4F4AE07F
:1004300062EC70E080819181CCD982EC90E058D957
:1004400085E690E055D9F394F801EBCFD0DFDF914A
:10045000CF911F910F91FF900895FF920F931F93DB
:10046000CF93DF93082FF62EEA01682F80E058DF44
:1004700010E180E25FDF1150E1F7602F80E050DF94
:10048000CE017FDFFF2049F02FEF83ED90E3215075
:1004900080409040E1F700C00000DF91CF911F91B4
:1004A0000F91FF900895B99AC19A0895662349F073
:1004B000813019F0823011F00895F5CFBA9AC29ABE
:1004C0000895813019F0823021F00895B99AC198C9
:1004D0000895BA9AC2980895B89AC098089581303C
:1004E00021F0823031F48EE901C080E956D88823AA
:1004F00031F083E690E007D97ADF80E008958BE55C
:1005000090E001D974DF81E069D880EB67D860D8CA
:1005100081E008951F93CF93DF931F92CDB7DEB78D
:10052000182F862F6983DBDF6981111103C060E01A
:1005300070E02DC0613031F0623011F010E003C086
:100540001EE901C010E9812F28D88111F0CF46D8CB
:100550008111EDCF81E0810F20D88111E8CF4BD8F8
:10056000182F49D8898334D8898182958F7041E7C3
:1005700052E0849F9001859F300D1124C90168EEDF
:1005800073E0DBD88AE0189F600D711D1124CB0148
:100590000F90DF91CF911F910895EF920F931F93CA
:1005A000CF93DF93EA018617970791F08881811135
:1005B0000FC0BCDEBDDE42E251E060E080E04DDF16
:1005C00041E151E060E081E048DF81E0888304C0E0
:1005D000F9011082F801E082DF91CF911F910F9114
:1005E000EF900895EF92FF920F931F93CF93DF93B5
:1005F00000E0E12CF12C2FEF80E792E021508040C9
:100600009040E1F700C0000087B1807E826087B92A
:1006100025E32A95F1F70000369A3699FECFC4B14A
:10062000D5B1CF3F83E0D80710F4CE01E6DE47EE28
:1006300051E01F2D81E0FA01259134912C1B3D0BD7
:1006400037FF03C0319521953109283231050CF46B
:10065000182F8F5F4E5F5F4F863069F7002331F0B0
:10066000112321F0F1120EC0EE24E3940F5F053048
:1006700011F0F12EC0CFEE2029F0812F90E0BDDEE9
:10068000812F01C080E0DF91CF911F910F91FF90EA
:10069000EF9008951F93CF93DF93EC0161E080E02A
:1006A0003FDE10E180E246DE1150E1F74AE062EC05
:1006B00070E0888199818DD861E080E031DE82EC44
:1006C00090E0DF91CF911F9151CE97B18F71907EC5
:1006D000892B87B940E480E090E0DC0125E32A958E
:1006E000F1F70000369A3699FECF24B135B1820F6A
:1006F000931FA11DB11D415089F7089580E0E5DFEA
:100700002091790030917A0021153105E1F08217AE
:10071000930780F4A901481B590BCA0156E096952E
:1007200087955A95E1F7281B390B30937A0020936F
:1007300079000DC0821B930B46E0969587954A95EC
:10074000E1F7820F931F90937A00809379002091B4
:10075000790030917A00A4ECB9E025D82FEF3FEF73
:1007600040E050E0FED7C9010895CF93DF93EB013D
:100770004AE062EC70E02DD8CE013DDE82EC90E0E4
:10078000B7D735DED3DDD4DDCE01FBDD61E080E01F
:10079000C7DD82EC90E0EADD2FEF83ED90E321509E
:1007A00080409040E1F700C00000DF91CF910895B4
:1007B0002F923F924F925F926F927F928F929F9271
:1007C000AF92BF92CF92DF92EF92FF920F931F935F
:1007D000CF93DF93CDB7DEB72F970FB6F894DEBF78
:1007E0000FBECDBF982E862E5B874A873D872C870C
:1007F0001F870E878EE18093600010927A0010921E
:10080000790010927800109277008AE0809364005B
:1008100084E893E0909363008093620026E0921254
:1008200004C041DE61E082E002C061E0882D3EDE6E
:10083000D9DDBB9A85B5806285BD85B5886485BDE7
:1008400085B5816085BD13BCC701D5DD6FDD70DD69
:10085000C70197DDB92CE12CF12C712CA12C90E073
:10086000809173009817E1F3F894A89581B5886199
:1008700081BD81B5876081BD789440DF8C0181E0C6
:1008800024DF209177003091780021153105E1F0C7
:100890008217930780F4A901481B590BCA0156E03F
:1008A000969587955A95E1F7281B390B3093780078
:1008B000209377000DC0821B930B46E09695879599
:1008C0004A95E1F7820F931F909378008093770009
:1008D000209177003091780080917600A81609F475
:1008E0005EC2A4ECB9E05FD72FEF3FEF40E050E0ED
:1008F00038D7A4EFB1E063D72FEE31E040E050E00D
:1009000030D7322E432E542E652E822F932F998767
:1009100088872091760080917400909175003091C5
:1009200064001F923F93309163003F9330916200C7
:100930003F9330917C003F9330917B003F93309107
:1009400061001F923F931F927F92FF92EF924F920E
:100950003F921F930F931F922F939F938F931F92FA
:10096000BF928BE08F9351DD61E084E0D9DC88E6B3
:1009700090E0FCDC0FB6F894DEBF0FBECDBF58018F
:10098000A3E0CA2ED12CBAE02B2EA114B10429F178
:10099000C5016AE070E0D1D65B01862F622DC1D619
:1009A0004AE0BE016F5F7F4F892F90E012D791E040
:1009B000C916D10441F461E081E0B2DC8AE690E03E
:1009C000D5DCC12CD12C61E08C2DAADCCE010196A6
:1009D000CDDCE1E0CE1AD108D8CF61E08AE0A0DC1E
:1009E0008CE690E0C3DCA32CB42CE9E0CE2ED12C15
:1009F000FAE02F2EA114B10451F136E0C316D10450
:100A000034F1C5016AE070E098D65B01862F622D53
:100A100088D64AE0BE016F5F7F4F892F90E0D9D61C
:100A2000F7E0CF16D10449F461E087E079DC8AE68B
:100A300090E09CDC76E0C72ED12C61E08C2D70DC40
:100A4000CE01019693DC21E0C21AD108D3CF61E038
:100A50008EE066DC8EE690E089DC67015DE0B52E15
:100A60006AE0A62EC114D104D1F04BE0B416B9F05F
:100A7000C6016AE070E061D66B01862F6A2D51D6FF
:100A80004AE0BE016F5F7F4F892F90E0A2D661E000
:100A90008B2D46DCCE01019669DCBA94E3CF8091C0
:100AA0007600811143C0682D8091720033DD6C01A6
:100AB0000097E9F180917400909175000F97B8F15B
:100AC00056E0951609F486C0EC14FD0480F5C601C5
:100AD0008E199F090B9728F481E9C81681E0D80682
:100AE00030F182E490E00FD6C70187DCC60185DCD7
:100AF00079DC60E0882DDADC8091740090917500DB
:100B00001BE0115009F4ECC0209174003091750085
:100B100082179307C9F3682D80917200FBDC6C018A
:100B20006CDC8091740090917500EBCF670194E0CC
:100B3000991621F1991520F0E3E09E1649F070C056
:100B4000F5E09F1699F126E0921609F443C068C0BB
:100B5000043F31E0130708F4C6C0083E134008F014
:100B6000CAC080917400909175000B9708F4B5C0CD
:100B700087EE90E040DC47EE50E04EC0043F51E08D
:100B8000150708F4B0C0003D87E0180708F0AEC0B4
:100B90008091740090917500833D910508F443C0E5
:100BA00082ED90E028DC42ED50E010C0043F11409F
:100BB00008F499C08091740090917500CD9708F465
:100BC0008FC08BEB90E017DC4BEB50E061E080E0F6
:100BD00044DC8CC0043F114008F485C082E090E002
:100BE0001BD68C0180E090E017D60230110539F455
:100BF00020917400309175008217930740F0809126
:100C00007400909175008936914008F46FC08BEFA5
:100C100090E0F1DB4BEF50E061E080E01EDC63C070
:100C200024E0921266C080917400909175000F9735
:100C300008F461C0083735E0130708F45CC0209160
:100C40007B0030917C0020173107F0F48091610027
:100C5000882311F0815019C0C9010196A801421BD7
:100C6000530B9A0136952795820F931F90937C0022
:100C700080937B0085E08093610084E893E090930B
:100C800063008093620003C085E0809361008091DF
:100C9000620090916300009771F001979093630058
:100CA0008093620080917B0090917C0005970817EB
:100CB000190720F00EC084E390E008C08091640022
:100CC000882311F0815006C086E290E01CD58FDBAE
:100CD0000DC08AE0809364000EC0B3E0BB2E0DC04F
:100CE000A5E0BA2E0AC0F7E0BF2E07C0E6E0BE2E90
:100CF00004C0B92C02C074E0B72E80916000882334
:100D000001F1809176006AE00CD591111AC0288516
:100D100039854A855B852417350720F45EE757152A
:100D200020F005C0772009F460C08FEF01C081E09A
:100D3000870D781283BD9091600091509093600070
:100D4000782E80917600811107C0EC85FD85808129
:100D500091810196918380839B14F1F0A09174009E
:100D6000B0917500232D342D452D562D28D52CE31B
:100D700030E040E050E0F5D4EE85FF858081918140
:100D8000820F931F91838083F4E09F1205C021E0BE
:100D9000821202C067E0B62EA09076007601909194
:100DA0007300F894A89581B5886181BD11BC7894D1
:100DB000B91409F455CD8B2D2F960FB6F894DEBFDC
:100DC0000FBECDBFDF91CF911F910F91FF90EF909C
:100DD000DF90CF90BF90AF909F908F907F906F905B
:100DE0005F904F903F902F900895288539854A85D0
:100DF0005B854217530708F09ACF80E09CCFCF93D2
:100E0000DF93CDB7DEB760970FB6F894DEBF0FBEA5
:100E1000CDBF1C861B861A86198618861F821E82E5
:100E20001D821C821B8260E081E040DB60E082E08A
:100E30003DDB52DBD7DA87E690E035D43F983E9829
:100E400087E086B9379A369A3699FECF84B195B144
:100E50008CE0A5DA4ADA182F882379F087EA90E047
:100E600052D4C5DA88E255DA88E053DA5FDA86E0F0
:100E700050DA8CE04EDA5CDA04C08FE990E043D4BB
:100E8000B6DA1093710085D38EB588608EBD89B7B0
:100E9000806189BF84E39CE09BBD8ABD8EB585607F
:100EA0008EBD78949FDBFF24F3941F861E861D86DB
:100EB0003DDA43E950E060E080E0CFDA48E850E016
:100EC00060E081E0CADA1E8511110CC08BDB823034
:100ED00009F423C118F4813019F0F5CF863098F762
:100EE000FE86F1CF113009F055C020DA4AE750E014
:100EF00060E080E0B2DA84E090E08ED49A83898367
:100F0000CE010196C7DB1D861F878F85882309F4D4
:100F100041C068DB833009F188F48130D1F0823040
:100F2000A1F769817A8184E090E07BD4FFD948E21F
:100F300051E061E081E091DA1F86E7CF8430A9F0CB
:100F4000853019F7C980DA8084E090E065D4E12C1F
:100F500015C089819A8101970BC0C980DA8084E02D
:100F600090E05AD4A2E0EA2E09C089819A810196C4
:100F70009A838983CE0101968DDBC7CF8E01025FF4
:100F80001F4F9E01215F3F4FAE01435F5F4FB60190
:100F900004DBBBCF8E858230A9F08E85833009F0CB
:100FA00084CFC4D94EE351E060E080E056DA80E0BF
:100FB00090E032D49A838983CE0101966BDB1D8643
:100FC000FF8675C0B3D94CE650E060E080E045DABA
:100FD00082E090E021D46C018230910549F04CE828
:100FE00051E060E081E039DACC24C394D12C05C013
:100FF0004DE751E060E081E030DA1D86FF868F85A5
:10100000882359F2EFDA833099F180F48130C1F00E
:101010008230A9F7B60182E090E003D487D948E294
:1010200051E061E081E019DA1F86E9CF8430A1F058
:10103000853029F782E090E0EFD3EE24E3941DC0E1
:10104000CA94CD2861F44DE751E060E081E005DA13
:10105000E2E0CE2ED12CD3CFCA94CD28A1F34CE818
:1010600051E060E081E0F9D9CC24C394D12CC7CF02
:1010700082E090E0D1D363E0E62E8E01025F1F4F45
:101080009E01215F3F4FAE01435F5F4FB60185DA9E
:10109000B6CFA8DA833051F1E8F4813061F4898168
:1010A0009A8101979A838983CE010196F3DA8F851D
:1010B0008111EFCFFACE8230D1F769817A8180E059
:1010C00090E0AFD333D948E251E061E081E0C5D987
:1010D0001F86EDCF843089F0853049F7C980DA80EA
:1010E00080E090E099D352E0E52E0BC0C980DA8011
:1010F00080E090E091D3E12C04C089819A8101962F
:10110000D1CF8E01025F1F4F9E01215F3F4FAE0185
:10111000435F5F4FB60141DACACF84E090E07CD3F1
:101120009C0101978E3F9F4F88F4C9016AE070E0EF
:1011300004D36B015901B694A794C90168E270E029
:10114000FCD24B0111E05524539411C08EEA90E07B
:1011500052D94EEA50E061E080E07FD917E032E0FA
:10116000532E812C912CA12CB12CC12CD12C9AE086
:10117000392E24E8622E23E0722E05E0402E8EE107
:10118000282E1A86198618861F821E821D821C82AE
:101190001B821C861B8630926400709263006092F2
:1011A0006200409261002092600010927C001092D8
:1011B0007B0010927A0010927900109278001092C1
:1011C0007700B4D8B5D88BEC91E015D94BEC51E051
:1011D00061E080E042D9113009F079C08BEB91E0F9
:1011E0000AD94BEB51E061E080E037D960E081E063
:1011F0005DD960E082E05AD96FD9F4D861E0852DDD
:1012000055D9852D6CD980937200809176001DE3AD
:10121000F12EFA9409F445C1909176008917E1F313
:1012200010927A001092790069DA8C01652D809114
:10123000720070D940917600209174003091750051
:101240009F938F931F930F931F924F933F932F93CF
:101250001F925F924F92D9D8C801895E93400FB612
:10126000F894DEBF0FBECDBF833F914020F4809144
:101270007000882379F1055F1140073E1340E0F4C8
:101280002BD981EA91E0B7D841EA51E060E081E0F2
:10129000E4D810927600109275001092740082E0EB
:1012A00090E0BAD28130910509F4B6C0029709F4F2
:1012B000E6C0B2E05B2EF5C080EB91E09CD840EB3D
:1012C00051E060E081E0C9D880917600A2CF123071
:1012D00009F0A0C060E081E0E9D860E082E0E6D8F3
:1012E000E2D80CDA8C0160E081E0E0D861E082E0D5
:1012F000DDD804DA7C01D7D8B89AC09A8BED91E09A
:101300007AD84BED51E060E080E0A7D880E0909182
:1013100076008917E1F3083E83E0180718F460E0CF
:1013200081E01DC0B29B05C060E082E0BFD821E033
:1013300001C020E09FEF31EE44E09150304040404A
:10134000E1F700C0000010927A0010927900288B1B
:10135000D5D98C012889222319F061E082E0A6D832
:1013600088EEE81683E0F80620F460E082E09ED87C
:101370001BC0B19B05C060E081E098D821E001C0AE
:1013800020E09FEF31EE44E0915030404040E1F7E3
:1013900000C0000010927A0010927900288BAED91C
:1013A0007C01288921117FD82091760080917400DA
:1013B00090917500FF92EF921F930F931F922F93BE
:1013C0009F938F931F9282E08F934F921ED80FB6F8
:1013D000F894DEBF0FBECDBF083E93E01907B8F406
:1013E00028EEE21623E0F20690F476D860E081E081
:1013F0005DD860E082E05AD81092760010927500B5
:101400001092740081E08093700011E0BACE809158
:1014100076007DCF133079F4A7E9EA2EA1E0FA2E09
:101420008E01055F1F4F9E01275F3F4FA601652D6F
:1014300083E0BED9182F143079F4FCE8EF2EF1E0E8
:10144000FF2E8E01055F1F4F9E01295F3F4FA501B3
:10145000652D84E0ADD9182F153079F4E5E8EE2E2E
:10146000E1E0FE2E8E01055F1F4F9E012B5F3F4F77
:10147000A601652D85E09CD9182F163079F47DE7FB
:10148000E72E71E0F72E8E01055F1F4F9E012D5F45
:101490003F4FA401652D86E08BD9182F173009F036
:1014A00070CE89E791E0A7D79DD760E081E0FED7B5
:1014B00060E082E0FBD76AE671E089859A8555D9BC
:1014C0006AE571E08F81988550D96BE471E08D8178
:1014D0009E814BD96EE371E08B819C8146D98F81CF
:1014E000988529853A85820F931F2D813E81820F31
:1014F000931F2B813C8163E371E0820F931F35D9E9
:101500006EE271E08B859C8530D931E0531204C0C6
:1015100062E0562E11E031CE09D70AD749E751E0F3
:1015200061E080E09AD785B78F78806285BF85B704
:10153000806885BF8895F0CF1F920F920FB60F92EB
:1015400011248F939F93809173008F5F809373001A
:10155000809173008530B1F4109273008091760011
:101560008F5F80937600809176008C3359F41092CF
:1015700076008091740090917500019690937500AB
:10158000809374009F918F910F900FBE0F901F90CA
:10159000189511B888E480B9089594EA96BF06B604
:1015A00007FEFDCF91B1987F983021F0903111F076
:1015B00081E0089583B984E886BF06B607FEFDCFB3
:1015C00081B1887F883111F0803491F780E00895EF
:1015D00084E986BF06B604FCFDCF089583B984E88C
:1015E00086BF06B607FEFDCF91B1987F81E09832A5
:1015F00009F480E0089584EC86BF06B607FEFDCFAF
:1016000083B108951F920F920FB60F9211242F935A
:101610008F939F93EF93FF938BB19CB18871E0916F
:101620007F00EF5FEF7120917E00E21739F0E093C9
:101630007F00F0E0EE57FF4F908301C082E0909171
:101640007D00982B90937D00FF91EF919F918F915A
:101650002F910F900FBE0F901F9018951F920F9211
:101660000FB60F9211248F939F93EF93FF93909156
:10167000810080918000981761F0E0918000EF5F19
:10168000EF71E0938000F0E0EE55FF4F80818CB960
:1016900001C05598FF91EF919F918F910F900FBED0
:1016A0000F901F9018951092810010928000109258
:1016B0007F0010927E0097FF03C022E02BB99F7736
:1016C00090BD89B988E88AB986E880BD089590916F
:1016D00081009F5F9F71209180009217E1F3E92FB5
:1016E000F0E0EE55FF4F808390938100559A089566
:1016F000CF93DF93EC018991882311F0E8DFFBCFD2
:10170000DF91CF910895CF93DF93FC018491EF0196
:101710002196882319F0DBDFFE01F8CFDF91CF910E
:101720000895991B79E004C0991F961708F0961B3D
:10173000881F7A95C9F780950895AA1BBB1B51E1B4
:1017400007C0AA1FBB1FA617B70710F0A61BB70B31
:10175000881F991F5A95A9F780959095BC01CD01D6
:101760000895A1E21A2EAA1BBB1BFD010DC0AA1FE2
:10177000BB1FEE1FFF1FA217B307E407F50720F0FA
:10178000A21BB30BE40BF50B661F771F881F991F75
:101790001A9469F760957095809590959B01AC01BE
:1017A000BD01CF010895A29FB001B39FC001A39FC7
:1017B00001D0B29F700D811D1124911D0895F3DF9A
:1017C000A59F900DB49F900DA49F800D911D112495
:1017D0000895BB274A3031F4992322F4BDE2909555
:1017E00081959F4F01C0BB27FB015527AA27880F72
:1017F000991FAA1FA41710F0A41B83955051B9F785
:10180000A05DAA3308F0A95DA193009779F7B11103
:10181000B1931192CB0108C0A8E1B0E042E050E0E2
:1018200015C022D0272F21C0DC01FC01672F719148
:101830007723E1F7329704C07C916D9370836291B6
:10184000AE17BF07C8F30895DC01CB01FC01E19995
:10185000FECF06C0FFBBEEBBE09A31960DB20D92F3
:1018600041505040B8F70895262FE199FECF9FBB15
:101870008EBB2DBB0FB6F894E29AE19A0FBE01968B
:061880000895F894FFCF6B
:101886001E0584030A3B200056002C00410043003D
:00000001FF
